{"abi":[{"type":"constructor","inputs":[{"name":"_factoryAdmin","type":"address","internalType":"address"},{"name":"_localDirector","type":"address","internalType":"address"},{"name":"_tokenID","type":"address","internalType":"address"}],"stateMutability":"nonpayable"},{"type":"receive","stateMutability":"payable"},{"type":"function","name":"DEFAULT_ADMIN_ROLE","inputs":[],"outputs":[{"name":"","type":"bytes32","internalType":"bytes32"}],"stateMutability":"view"},{"type":"function","name":"FACTORY_ADMIN_ROLE","inputs":[],"outputs":[{"name":"","type":"bytes32","internalType":"bytes32"}],"stateMutability":"view"},{"type":"function","name":"LAB_DIRECTOR_ROLE","inputs":[],"outputs":[{"name":"","type":"bytes32","internalType":"bytes32"}],"stateMutability":"view"},{"type":"function","name":"MEDICAL_OFFICER_ROLE","inputs":[],"outputs":[{"name":"","type":"bytes32","internalType":"bytes32"}],"stateMutability":"view"},{"type":"function","name":"addReport","inputs":[{"name":"_id","type":"uint256","internalType":"uint256"},{"name":"_res","type":"string","internalType":"string"},{"name":"_tech","type":"string","internalType":"string"},{"name":"_pat","type":"address","internalType":"address"}],"outputs":[],"stateMutability":"payable"},{"type":"function","name":"agentPermissionToken","inputs":[],"outputs":[{"name":"","type":"address","internalType":"address"}],"stateMutability":"view"},{"type":"function","name":"anchorFee","inputs":[],"outputs":[{"name":"","type":"uint256","internalType":"uint256"}],"stateMutability":"view"},{"type":"function","name":"authorizedAgents","inputs":[{"name":"","type":"address","internalType":"address"}],"outputs":[{"name":"","type":"bool","internalType":"bool"}],"stateMutability":"view"},{"type":"function","name":"automationEnabled","inputs":[],"outputs":[{"name":"","type":"bool","internalType":"bool"}],"stateMutability":"view"},{"type":"function","name":"getReport","inputs":[{"name":"_id","type":"uint256","internalType":"uint256"}],"outputs":[{"name":"","type":"tuple","internalType":"struct LabRegistry.LabReport","components":[{"name":"results","type":"string","internalType":"string"},{"name":"technician","type":"string","internalType":"string"},{"name":"timestamp","type":"uint256","internalType":"uint256"},{"name":"patientAddress","type":"address","internalType":"address"},{"name":"status","type":"uint8","internalType":"enum LabRegistry.Status"},{"name":"verifiedBy","type":"address","internalType":"address"},{"name":"rejectionReason","type":"string","internalType":"string"}]}],"stateMutability":"view"},{"type":"function","name":"getRoleAdmin","inputs":[{"name":"role","type":"bytes32","internalType":"bytes32"}],"outputs":[{"name":"","type":"bytes32","internalType":"bytes32"}],"stateMutability":"view"},{"type":"function","name":"grantRole","inputs":[{"name":"role","type":"bytes32","internalType":"bytes32"},{"name":"account","type":"address","internalType":"address"}],"outputs":[],"stateMutability":"nonpayable"},{"type":"function","name":"handleTransferRequest","inputs":[{"name":"_id","type":"uint256","internalType":"uint256"},{"name":"_approve","type":"bool","internalType":"bool"},{"name":"_note","type":"string","internalType":"string"}],"outputs":[],"stateMutability":"nonpayable"},{"type":"function","name":"hasRole","inputs":[{"name":"role","type":"bytes32","internalType":"bytes32"},{"name":"account","type":"address","internalType":"address"}],"outputs":[{"name":"","type":"bool","internalType":"bool"}],"stateMutability":"view"},{"type":"function","name":"pause","inputs":[],"outputs":[],"stateMutability":"nonpayable"},{"type":"function","name":"paused","inputs":[],"outputs":[{"name":"","type":"bool","internalType":"bool"}],"stateMutability":"view"},{"type":"function","name":"rejectReport","inputs":[{"name":"_id","type":"uint256","internalType":"uint256"},{"name":"_reason","type":"string","internalType":"string"}],"outputs":[],"stateMutability":"nonpayable"},{"type":"function","name":"renounceRole","inputs":[{"name":"role","type":"bytes32","internalType":"bytes32"},{"name":"callerConfirmation","type":"address","internalType":"address"}],"outputs":[],"stateMutability":"nonpayable"},{"type":"function","name":"requestDataTransfer","inputs":[{"name":"_id","type":"uint256","internalType":"uint256"}],"outputs":[],"stateMutability":"nonpayable"},{"type":"function","name":"revokeRole","inputs":[{"name":"role","type":"bytes32","internalType":"bytes32"},{"name":"account","type":"address","internalType":"address"}],"outputs":[],"stateMutability":"nonpayable"},{"type":"function","name":"setAgentStatus","inputs":[{"name":"_agent","type":"address","internalType":"address"},{"name":"_status","type":"bool","internalType":"bool"}],"outputs":[],"stateMutability":"nonpayable"},{"type":"function","name":"setAnchorFee","inputs":[{"name":"_newFee","type":"uint256","internalType":"uint256"}],"outputs":[],"stateMutability":"nonpayable"},{"type":"function","name":"setAutomation","inputs":[{"name":"_status","type":"bool","internalType":"bool"}],"outputs":[],"stateMutability":"nonpayable"},{"type":"function","name":"supportsInterface","inputs":[{"name":"interfaceId","type":"bytes4","internalType":"bytes4"}],"outputs":[{"name":"","type":"bool","internalType":"bool"}],"stateMutability":"view"},{"type":"function","name":"transferRequests","inputs":[{"name":"","type":"uint256","internalType":"uint256"}],"outputs":[{"name":"isPending","type":"bool","internalType":"bool"},{"name":"requestedBy","type":"address","internalType":"address"},{"name":"requestTimestamp","type":"uint256","internalType":"uint256"},{"name":"reason","type":"string","internalType":"string"}],"stateMutability":"view"},{"type":"function","name":"unpause","inputs":[],"outputs":[],"stateMutability":"nonpayable"},{"type":"function","name":"verifyReport","inputs":[{"name":"_id","type":"uint256","internalType":"uint256"}],"outputs":[],"stateMutability":"nonpayable"},{"type":"function","name":"withdraw","inputs":[],"outputs":[],"stateMutability":"nonpayable"},{"type":"event","name":"AgentStatusChanged","inputs":[{"name":"agent","type":"address","indexed":true,"internalType":"address"},{"name":"status","type":"bool","indexed":false,"internalType":"bool"}],"anonymous":false},{"type":"event","name":"FeeUpdated","inputs":[{"name":"newFee","type":"uint256","indexed":false,"internalType":"uint256"}],"anonymous":false},{"type":"event","name":"Paused","inputs":[{"name":"account","type":"address","indexed":false,"internalType":"address"}],"anonymous":false},{"type":"event","name":"ReportAnchored","inputs":[{"name":"id","type":"uint256","indexed":true,"internalType":"uint256"},{"name":"patient","type":"address","indexed":true,"internalType":"address"},{"name":"tech","type":"string","indexed":false,"internalType":"string"},{"name":"time","type":"uint256","indexed":false,"internalType":"uint256"}],"anonymous":false},{"type":"event","name":"ReportRejected","inputs":[{"name":"id","type":"uint256","indexed":true,"internalType":"uint256"},{"name":"doctor","type":"address","indexed":true,"internalType":"address"},{"name":"reason","type":"string","indexed":false,"internalType":"string"}],"anonymous":false},{"type":"event","name":"ReportVerified","inputs":[{"name":"id","type":"uint256","indexed":true,"internalType":"uint256"},{"name":"doctor","type":"address","indexed":true,"internalType":"address"},{"name":"time","type":"uint256","indexed":false,"internalType":"uint256"}],"anonymous":false},{"type":"event","name":"RoleAdminChanged","inputs":[{"name":"role","type":"bytes32","indexed":true,"internalType":"bytes32"},{"name":"previousAdminRole","type":"bytes32","indexed":true,"internalType":"bytes32"},{"name":"newAdminRole","type":"bytes32","indexed":true,"internalType":"bytes32"}],"anonymous":false},{"type":"event","name":"RoleGranted","inputs":[{"name":"role","type":"bytes32","indexed":true,"internalType":"bytes32"},{"name":"account","type":"address","indexed":true,"internalType":"address"},{"name":"sender","type":"address","indexed":true,"internalType":"address"}],"anonymous":false},{"type":"event","name":"RoleRevoked","inputs":[{"name":"role","type":"bytes32","indexed":true,"internalType":"bytes32"},{"name":"account","type":"address","indexed":true,"internalType":"address"},{"name":"sender","type":"address","indexed":true,"internalType":"address"}],"anonymous":false},{"type":"event","name":"TransferHandled","inputs":[{"name":"id","type":"uint256","indexed":true,"internalType":"uint256"},{"name":"approved","type":"bool","indexed":false,"internalType":"bool"},{"name":"reason","type":"string","indexed":false,"internalType":"string"}],"anonymous":false},{"type":"event","name":"TransferRequested","inputs":[{"name":"id","type":"uint256","indexed":true,"internalType":"uint256"},{"name":"patient","type":"address","indexed":true,"internalType":"address"}],"anonymous":false},{"type":"event","name":"Unpaused","inputs":[{"name":"account","type":"address","indexed":false,"internalType":"address"}],"anonymous":false},{"type":"error","name":"AccessControlBadConfirmation","inputs":[]},{"type":"error","name":"AccessControlUnauthorizedAccount","inputs":[{"name":"account","type":"address","internalType":"address"},{"name":"neededRole","type":"bytes32","internalType":"bytes32"}]},{"type":"error","name":"EnforcedPause","inputs":[]},{"type":"error","name":"ExpectedPause","inputs":[]}],"bytecode":{"object":"0x6080346200014f57601f62001f8738819003918201601f19168301916001600160401b0383118484101762000153578084926060946040528339810103126200014f576200009c620000518262000167565b91620000896200007260406200006a6020850162000167565b930162000167565b935f60025562000082816200017c565b50620001ec565b5062000095816200027a565b5062000302565b505f8051602062001f07833981519152805f525f602052600160405f2001908154915f8051602062001f2783398151915292838092557fbd79b86ffe0ab8e8776151514217cd7cacd52c909f66475c3af44e129f0b00ff92835f80a45f8051602062001f47833981519152805f52600160405f20019183835493555f80a460018054610100600160a81b03191660089290921b610100600160a81b0316919091179055604051611b5c90816200038b8239f35b5f80fd5b634e487b7160e01b5f52604160045260245ffd5b51906001600160a01b03821682036200014f57565b6001600160a01b03165f8181525f8051602062001f67833981519152602052604090205460ff16620001e7575f8181525f8051602062001f6783398151915260205260408120805460ff191660011790553391905f8051602062001ee78339815191528180a4600190565b505f90565b6001600160a01b03165f8181527f40d6054e7c1e32abf36e71c717b2201c6fb50ee4639813ce060d4f8ffbb78bdd60205260409020545f8051602062001f27833981519152919060ff166200027457815f525f60205260405f20815f5260205260405f20600160ff1982541617905533915f8051602062001ee78339815191525f80a4600190565b50505f90565b6001600160a01b03165f8181527f1f2aa208554f956f1d5608849d3df9f37ee2b0f95bb642aeb1937af8b8e7609260205260409020545f8051602062001f07833981519152919060ff166200027457815f525f60205260405f20815f5260205260405f20600160ff1982541617905533915f8051602062001ee78339815191525f80a4600190565b6001600160a01b03165f8181527f1405c7f50fa236809a492910e961d0a3f3a40f958757faa3a813fa81e701f52760205260409020545f8051602062001f47833981519152919060ff166200027457815f525f60205260405f20815f5260205260405f20600160ff1982541617905533915f8051602062001ee78339815191525f80a460019056fe608080604052600436101561001c575b50361561001a575f80fd5b005b5f3560e01c90816301ffc9a7146116745750806303486c401461160a57806309208a75146114d95780630f3a2570146112b557806323cf4ce914611269578063248a9ca31461123d5780632f2ff15d146112015780633360cf5e146111c757806336568abe146111805780633ccfd60b146111485780633f4ba83a146110df57806349ee8e22146110a55780634dc47bd6146109ee5780634e7f9b19146107c35780635425a4d8146106af5780635c975abb1461068d5780638456cb5914610635578063919acbe61461061857806391d14854146105d057806394ebb91a14610596578063a217fddf1461057c578063d547741f14610540578063d966a5941461051e578063efd76065146104e1578063f665f6b4146104b5578063f95b620d14610438578063fcb35ab3146101985763ff443c761461015c575f61000f565b346101945760203660031901126101945760043580151580910361019457610182611943565b60ff8019600354169116176003555f80f35b5f80fd5b3461019457602080600319360112610194576004355f8181526005835260409020600301549091906001600160a01b031633036103f457815f526006815260ff60405f2054166103b7576040519067ffffffffffffffff60808301818111848210176103a35760405260019182845260028185019433865260408101428152604051966102248861171b565b5f885260608301978852885f526006855261025260405f2093511515849060ff801983541691151516179055565b518254610100600160a81b03191660089190911b610100600160a81b03161782555185820155945180519190950194909283116103a35761029385546116c7565b601f811161035d575b5081601f84116001146102fb57509282939183925f946102f0575b50501b915f199060031b1c19161790555b33907f8b7f6b89f2cf0bff8d270c9d1595e3f21d27edbb9c103c1b45f9d882ec0e73245f80a3005b0151925086806102b7565b919083601f198116875f52845f20945f905b88838310610343575050501061032b575b505050811b0190556102c8565b01515f1960f88460031b161c1916905584808061031e565b85870151885590960195948501948793509081019061030d565b855f52825f20601f850160051c810191848610610399575b601f0160051c019085905b82811061038e57505061029c565b5f8155018590610380565b9091508190610375565b634e487b7160e01b5f52604160045260245ffd5b6064906040519062461bcd60e51b8252600482015260166024820152755265717565737420616c72656164792061637469766560501b6044820152fd5b6064906040519062461bcd60e51b82526004820152601860248201527f4f6e6c792070617469656e742063616e207265717565737400000000000000006044820152fd5b34610194576040366003190112610194576104516118a5565b7f87a2f5d6264ebbda5bf1278472c7cd45819bf76a99da8075ea9768d2e827050f602061047c6118bb565b92610485611943565b6001600160a01b03165f8181526004835260409020805460ff191660ff86151516179055926040519015158152a2005b34610194575f3660031901126101945760015460405160089190911c6001600160a01b03168152602090f35b34610194576020366003190112610194576001600160a01b036105026118a5565b165f526004602052602060ff60405f2054166040519015158152f35b34610194575f36600319011261019457602060ff600354166040519015158152f35b346101945760403660031901126101945761001a60043561055f61188f565b90805f525f602052610577600160405f2001546119f9565b611a96565b34610194575f3660031901126101945760206040515f8152f35b34610194575f3660031901126101945760206040517f0aef8ebb1f6ee594f445e1914207e85f101ba2f73c632c3bd1edea3f1b077b548152f35b34610194576040366003190112610194576105e961188f565b6004355f525f60205260405f209060018060a01b03165f52602052602060ff60405f2054166040519015158152f35b34610194575f366003190112610194576020600254604051908152f35b34610194575f3660031901126101945761064d61199e565b610655611b08565b600160ff19815416176001557f62e78cea01bee320cd4e420270b5ea74000d11b0c9f74754ebdbfc544b05a2586020604051338152a1005b34610194575f36600319011261019457602060ff600154166040519015158152f35b34610194576060366003190112610194576004356106cb6118bb565b60443567ffffffffffffffff8111610194576106eb903690600401611839565b6106f3611943565b825f52600660205260ff60405f20541615610789577f2df3a2219612ac95ff9186f5e36608f9e43fbb47939974e23ffb907099f5275591835f5260066020528060405f2060ff198154169055610767575b610762604051928392151583526040602084015260408301906117fb565b0390a2005b600560205260405f20600301805460ff60a01b1916600160a11b179055610744565b60405162461bcd60e51b8152602060048201526012602482015271139bc81c195b991a5b99c81c995c5d595cdd60721b6044820152606490fd5b34610194576020806003193601126101945760c06040516107e3816116ff565b606091818380935282858201525f60408201525f838201525f60808201525f60a082015201526004355f526005825260405f2090604051610823816116ff565b61082c83611759565b815261083a60018401611759565b81850190815260028401546040830190815260038501546001600160a01b038082168686019081529095929492608084019260a01c60ff16600481101561096057835261089760058860048b0154169960a087019a8b5201611759565b9360c081019485528651156109b6577f25cbe7a69baa88683f56e5699a7cf5d955b04a08324d7549d9c4ef478e7009325f525f8a5260405f20335f528a5260ff60405f20541615806109a9575b610974579061092261090c89949360e06040519d8e92818452519201526101008d01906117fb565b9651601f198c8903810160408e015297906117fb565b9651908a0152511660808801525193600485101561096057869561095c9560a0880152511660c086015251908483030160e08501526117fb565b0390f35b634e487b7160e01b5f52602160045260245ffd5b60405162461bcd60e51b8152600481018b9052600d60248201526c1058d8d95cdcc811195b9a5959609a1b6044820152606490fd5b50878351163314156108e4565b60405162461bcd60e51b8152600481018b9052601060248201526f14995c1bdc9d081b9bdd08199bdd5b9960821b6044820152606490fd5b60803660031901126101945760243567ffffffffffffffff811161019457610a1a903690600401611839565b60443567ffffffffffffffff811161019457610a3a903690600401611839565b6064356001600160a01b038116810361019457610a55611b08565b6004355f526005602052600260405f20015461106c57335f8181527f1f2aa208554f956f1d5608849d3df9f37ee2b0f95bb642aeb1937af8b8e7609260209081526040918290205460015492516370a0823160e01b8152600481019490945260ff16918390602490829060081c6001600160a01b03165afa918215611061575f9261102d575b5060ff600354169182611015575b8261100b575b50159081611002575b50610fad576002543410610f705760405192610b13846116ff565b835281602084015242604084015260018060a01b03811660608401525f60808401525f60a0840152604051610b478161171b565b5f815260c08401526004355f52600560205260405f20835180519067ffffffffffffffff82116103a3578190610b7d84546116c7565b601f8111610f23575b50602090601f8311600114610ebb575f92610eb0575b50508160011b915f199060031b1c19161781555b602084015180519067ffffffffffffffff82116103a3578190610bd660018501546116c7565b601f8111610e60575b50602090601f8311600114610df2575f92610de7575b50508160011b915f199060031b1c19161760018201555b60408401516002820155606084015160038201805460808701516001600160a01b0390931693919060048410156109605760c09460059460ff60a01b9060a01b16916affffffffffffffffffffff60a81b16171790556004810160018060a01b0360a0880151166bffffffffffffffffffffffff60a01b8254161790550193015192835167ffffffffffffffff81116103a357610ca982546116c7565b601f8111610da2575b50602094601f8211600114610d40579481929394955f92610d35575b50508160011b915f199060031b1c19161790555b7f83cc53165b2b3fdda0870c13039033f50c08000bd46881053b660ec400380f4a610d18604051936040855260408501906117fb565b4260208501526001600160a01b03909216926004359281900390a3005b015190508580610cce565b601f19821695835f5260205f20915f5b888110610d8a57508360019596979810610d72575b505050811b019055610ce2565b01515f1960f88460031b161c19169055858080610d65565b91926020600181928685015181550194019201610d50565b825f5260205f20601f830160051c81019160208410610ddd575b601f0160051c01905b818110610dd25750610cb2565b5f8155600101610dc5565b9091508190610dbc565b015190508680610bf5565b9250600184015f5260205f20905f935b601f1984168510610e45576001945083601f19811610610e2d575b505050811b016001820155610c0c565b01515f1960f88460031b161c19169055868080610e1d565b81810151835560209485019460019093019290910190610e02565b909150600184015f5260205f20601f840160051c810160208510610ea9575b90849392915b601f830160051c82018110610e9b575050610bdf565b5f8155859450600101610e85565b5080610e7f565b015190508680610b9c565b9250835f5260205f20905f935b601f1984168510610f08576001945083601f19811610610ef0575b505050811b018155610bb0565b01515f1960f88460031b161c19169055868080610ee3565b81810151835560209485019460019093019290910190610ec8565b909150835f5260205f20601f840160051c810160208510610f69575b90849392915b601f830160051c82018110610f5b575050610b86565b5f8155859450600101610f45565b5080610f3f565b60405162461bcd60e51b8152602060048201526015602482015274496e73756666696369656e7420484241522046656560581b6044820152606490fd5b60405162461bcd60e51b815260206004820152602760248201527f556e617574686f72697a65643a204d697373696e6720526f6c65206f7220485460448201526629902a37b5b2b760c91b6064820152608490fd5b90501584610af8565b1515915085610aef565b9150335f52600460205260ff60405f20541691610ae9565b9091506020813d602011611059575b8161104960209383611737565b8101031261019457519085610adb565b3d915061103c565b6040513d5f823e3d90fd5b60405162461bcd60e51b8152602060048201526011602482015270494420616c72656164792065786973747360781b6044820152606490fd5b34610194575f3660031901126101945760206040517f25cbe7a69baa88683f56e5699a7cf5d955b04a08324d7549d9c4ef478e7009328152f35b34610194575f366003190112610194576110f761199e565b60015460ff8116156111365760ff19166001557f5db9ee0a495bf2e6ff9c91a7834c1ba4fdd244a5e8aa4e537bd38aeae4b073aa6020604051338152a1005b604051638dfc202b60e01b8152600490fd5b34610194575f36600319011261019457611160611943565b5f80808047818115611177575b3390f11561106157005b506108fc61116d565b346101945760403660031901126101945761119961188f565b336001600160a01b038216036111b55761001a90600435611a96565b60405163334bd91960e11b8152600490fd5b34610194575f3660031901126101945760206040517fbd5d72ac35ae1e83aa0625c57eddda63fbb064a87fca99dfdd7ce027384ae2828152f35b346101945760403660031901126101945761001a60043561122061188f565b90805f525f602052611238600160405f2001546119f9565b611a1a565b34610194576020366003190112610194576004355f525f6020526020600160405f200154604051908152f35b34610194576020366003190112610194577f8c4d35e54a3f2ef1134138fd8ea3daee6a3c89e10d2665996babdf70261e2c7660206004356112a8611943565b80600255604051908152a1005b346101945760403660031901126101945767ffffffffffffffff600435602435828111610194576112ea903690600401611839565b6112f26118ca565b815f526020926005845260ff600360405f20015460a01c16600481101561096057611494575f8381526005808652604090912060038101805460ff60a01b1916600360a01b179055835191019181116103a35761134f82546116c7565b601f8111611451575b5084601f82116001146113cb5791817f68ac7a7469852261d06b9c916a01ddbd0c11d4d5147a0beb3bc8811fcee8b5a494926113bb945f916113c0575b508160011b915f199060031b1c19161790555b60405191829186835233968301906117fb565b0390a3005b905083015188611395565b601f19821690835f52865f20915f5b8882821061143b575050926113bb9492600192827f68ac7a7469852261d06b9c916a01ddbd0c11d4d5147a0beb3bc8811fcee8b5a4989610611423575b5050811b0190556113a8565b8501515f1960f88460031b161c191690558880611417565b600184958293958a0151815501940192016113da565b825f52855f20601f830160051c81019187841061148a575b601f0160051c01905b81811061147f5750611358565b5f8155600101611472565b9091508190611469565b60405162461bcd60e51b815260048101859052601a60248201527f43616e6e6f742072656a6563742066696e616c207265706f72740000000000006044820152606490fd5b3461019457602080600319360112610194576004356114f66118ca565b805f5260058252600260405f200154156115cd57805f526005825260ff600360405f20015460a01c16600481101561096057611591575f8181526005835260409081902060038101805460ff60a01b1916600160a01b17905560040180546001600160a01b03191633908117909155905142815290927f4381bd52879a1d3fd3412b89dfb2d9da68f17550ef5f1c401d38eb63a408ccda91a3005b60405162461bcd60e51b815260048101839052601460248201527314995c1bdc9d08185b1c9958591e48199a5b985b60621b6044820152606490fd5b60405162461bcd60e51b815260048101839052601560248201527414995c1bdc9d08191bd95cc81b9bdd08195e1a5cdd605a1b6044820152606490fd5b34610194576020366003190112610194576004355f52600660205260405f20805461095c61163f600260018501549401611759565b604051938360ff8695161515855260018060a01b039060081c16602085015260408401526080606084015260808301906117fb565b34610194576020366003190112610194576004359063ffffffff60e01b821680920361019457602091637965db0b60e01b81149081156116b6575b5015158152f35b6301ffc9a760e01b149050836116af565b90600182811c921680156116f5575b60208310146116e157565b634e487b7160e01b5f52602260045260245ffd5b91607f16916116d6565b60e0810190811067ffffffffffffffff8211176103a357604052565b6020810190811067ffffffffffffffff8211176103a357604052565b90601f8019910116810190811067ffffffffffffffff8211176103a357604052565b9060405191825f825461176b816116c7565b908184526020946001916001811690815f146117d9575060011461179b575b50505061179992500383611737565b565b5f90815285812095935091905b8183106117c157505061179993508201015f808061178a565b855488840185015294850194879450918301916117a8565b9250505061179994925060ff191682840152151560051b8201015f808061178a565b91908251928382525f5b848110611825575050825f602080949584010152601f8019910116010190565b602081830181015184830182015201611805565b81601f820112156101945780359067ffffffffffffffff82116103a3576040519261186e601f8401601f191660200185611737565b8284526020838301011161019457815f926020809301838601378301015290565b602435906001600160a01b038216820361019457565b600435906001600160a01b038216820361019457565b60243590811515820361019457565b335f9081527f1405c7f50fa236809a492910e961d0a3f3a40f958757faa3a813fa81e701f52760205260409020547f0aef8ebb1f6ee594f445e1914207e85f101ba2f73c632c3bd1edea3f1b077b549060ff16156119255750565b6044906040519063e2517d3f60e01b82523360048301526024820152fd5b335f9081527f1f2aa208554f956f1d5608849d3df9f37ee2b0f95bb642aeb1937af8b8e7609260205260409020547f25cbe7a69baa88683f56e5699a7cf5d955b04a08324d7549d9c4ef478e7009329060ff16156119255750565b335f9081527f40d6054e7c1e32abf36e71c717b2201c6fb50ee4639813ce060d4f8ffbb78bdd60205260409020547fbd5d72ac35ae1e83aa0625c57eddda63fbb064a87fca99dfdd7ce027384ae2829060ff16156119255750565b805f525f60205260405f20335f5260205260ff60405f205416156119255750565b90815f525f60205260405f209060018060a01b031690815f5260205260ff60405f205416155f14611a9057815f525f60205260405f20815f5260205260405f20600160ff1982541617905533917f2f8788117e7eff1d82e926ec794901d17c78024a50270940304540a733656f0d5f80a4600190565b50505f90565b90815f525f60205260405f209060018060a01b031690815f5260205260ff60405f2054165f14611a9057815f525f60205260405f20815f5260205260405f2060ff19815416905533917ff6391f5c32d9c69d2a47ea670b442974b53935d1edc7fd64eb21e047a839171b5f80a4600190565b60ff60015416611b1457565b60405163d93c066560e01b8152600490fdfea26469706673582212202afdfa374351d648e05bbfd0c746da1e8cd292ee05e9b08dd316ace6fa6b16ad64736f6c634300081700332f8788117e7eff1d82e926ec794901d17c78024a50270940304540a733656f0d25cbe7a69baa88683f56e5699a7cf5d955b04a08324d7549d9c4ef478e700932bd5d72ac35ae1e83aa0625c57eddda63fbb064a87fca99dfdd7ce027384ae2820aef8ebb1f6ee594f445e1914207e85f101ba2f73c632c3bd1edea3f1b077b54ad3228b676f7d3cd4284a5443f17f1962b36e491b30a40b2405849e597ba5fb5","linkReferences":{}},"methodIdentifiers":{"DEFAULT_ADMIN_ROLE()":"a217fddf","FACTORY_ADMIN_ROLE()":"3360cf5e","LAB_DIRECTOR_ROLE()":"49ee8e22","MEDICAL_OFFICER_ROLE()":"94ebb91a","addReport(uint256,string,string,address)":"4dc47bd6","agentPermissionToken()":"f665f6b4","anchorFee()":"919acbe6","authorizedAgents(address)":"efd76065","automationEnabled()":"d966a594","getReport(uint256)":"4e7f9b19","getRoleAdmin(bytes32)":"248a9ca3","grantRole(bytes32,address)":"2f2ff15d","handleTransferRequest(uint256,bool,string)":"5425a4d8","hasRole(bytes32,address)":"91d14854","pause()":"8456cb59","paused()":"5c975abb","rejectReport(uint256,string)":"0f3a2570","renounceRole(bytes32,address)":"36568abe","requestDataTransfer(uint256)":"fcb35ab3","revokeRole(bytes32,address)":"d547741f","setAgentStatus(address,bool)":"f95b620d","setAnchorFee(uint256)":"23cf4ce9","setAutomation(bool)":"ff443c76","supportsInterface(bytes4)":"01ffc9a7","transferRequests(uint256)":"03486c40","unpause()":"3f4ba83a","verifyReport(uint256)":"09208a75","withdraw()":"3ccfd60b"},"id":0}