{"abi":[{"type":"constructor","inputs":[{"name":"_owner","type":"address","internalType":"address"}],"stateMutability":"nonpayable"},{"type":"function","name":"addReport","inputs":[{"name":"_id","type":"uint256","internalType":"uint256"},{"name":"_res","type":"string","internalType":"string"},{"name":"_tech","type":"string","internalType":"string"},{"name":"_pat","type":"address","internalType":"address"}],"outputs":[],"stateMutability":"nonpayable"},{"type":"function","name":"owner","inputs":[],"outputs":[{"name":"","type":"address","internalType":"address"}],"stateMutability":"view"},{"type":"function","name":"renounceOwnership","inputs":[],"outputs":[],"stateMutability":"nonpayable"},{"type":"function","name":"transferOwnership","inputs":[{"name":"newOwner","type":"address","internalType":"address"}],"outputs":[],"stateMutability":"nonpayable"},{"type":"event","name":"OwnershipTransferred","inputs":[{"name":"previousOwner","type":"address","indexed":true,"internalType":"address"},{"name":"newOwner","type":"address","indexed":true,"internalType":"address"}],"anonymous":false},{"type":"event","name":"ReportAnchored","inputs":[{"name":"id","type":"uint256","indexed":false,"internalType":"uint256"},{"name":"tech","type":"string","indexed":false,"internalType":"string"},{"name":"time","type":"uint256","indexed":false,"internalType":"uint256"}],"anonymous":false},{"type":"error","name":"OwnableInvalidOwner","inputs":[{"name":"owner","type":"address","internalType":"address"}]},{"type":"error","name":"OwnableUnauthorizedAccount","inputs":[{"name":"account","type":"address","internalType":"address"}]}],"bytecode":{"object":"0x6080346100b957601f6106e938819003918201601f19168301916001600160401b038311848410176100bd578084926020946040528339810103126100b957516001600160a01b0390818116908190036100b95780156100a1575f80546001600160a01b03198116831782556040519316907f8be0079c531659141344cd1fd0a4f28419497f9722a3daafe3b4186f6b6457e09080a361061790816100d28239f35b604051631e4fbdf760e01b81525f6004820152602490fd5b5f80fd5b634e487b7160e01b5f52604160045260245ffdfe604060c0815260049081361015610014575f80fd5b5f3560e01c80634dc47bd614610158578063715018a6146101015780638da5cb5b146100da5763f2fde38b14610048575f80fd5b346100d65760203660031901126100d6576001600160a01b038235818116939192908490036100d6576100796105b6565b83156100c05750505f54826bffffffffffffffffffffffff60a01b8216175f55167f8be0079c531659141344cd1fd0a4f28419497f9722a3daafe3b4186f6b6457e05f80a3005b905f6024925191631e4fbdf760e01b8352820152fd5b5f80fd5b50346100d6575f3660031901126100d6575f5490516001600160a01b039091168152602090f35b346100d6575f3660031901126100d6576101196105b6565b5f80546001600160a01b0319811682556001600160a01b03167f8be0079c531659141344cd1fd0a4f28419497f9722a3daafe3b4186f6b6457e08280a3005b50346100d65760809160806003193601126100d65780359167ffffffffffffffff906024358281116100d6576101919036908501610540565b6044358381116100d6576101a89036908601610540565b936001600160a01b0360643581811692908390036100d6576101c86105b6565b845193608085018581108882111761052d578652845260209384810188815286820190428252606083019586528a5f52600198898852885f209351998a5182811161051a57855460a081905280831c6080528216801561050c575b8a60805110146104f95780601f809d81608051116104a0575b8c91831160011461043f575f92610434575b50505f19600383901b1c191690821b1785555b8085019251958651928311610421578354908282811c92168015610417575b8b83101461040457508b81116103c1575b5088958b831160011461035957829160039783925f9461034e575b50501b915f1990871b1c19161790555b516002820155019151166bffffffffffffffffffffffff60a01b82541617905581519485526060818601528351938460608701525f5b85811061033b577ffe7774fb659ed7973c71fbe706e772b93b6b2784a486bbc115c9d5e633b5b729876080818989895f8584860101524290840152601f199101168101030190a1005b81810183015187820189015282016102f2565b015192505f806102ac565b9092939495601f19831691855f528a5f20925f5b8c8282106103ad57505090846003999897969594939210610396575b505050811b0190556102bc565b01515f1983891b60f8161c191690555f8080610389565b83850151865594870194938401930161036d565b835f52895f208c80850160051c8201928c86106103fb575b0160051c019082905b8281106103f0575050610291565b5f81550182906103e2565b925081926103d9565b602290634e487b7160e01b5f525260245ffd5b91607f1691610280565b604190634e487b7160e01b5f525260245ffd5b015190505f8061024e565b5f8981528d8120869550929190601f198516908f5b8282106104895750508411610471575b505050811b018555610261565b01515f1960f88460031b161c191690555f8080610464565b83850151865588979095019493840193018f610454565b915050865f528c8b5f2081840160051c8101918d85106104f0575b9185859492846080510160051c01915b8281106104da5750505061023c565b5f91939550809294505501918e918585946104cb565b915080916104bb565b602287634e487b7160e01b5f525260245ffd5b607f60805116608052610223565b604187634e487b7160e01b5f525260245ffd5b604183634e487b7160e01b5f525260245ffd5b81601f820112156100d65780359067ffffffffffffffff928383116105a25760405193601f8401601f19908116603f01168501908111858210176105a257604052828452602083830101116100d657815f926020809301838601378301015290565b634e487b7160e01b5f52604160045260245ffd5b5f546001600160a01b031633036105c957565b60405163118cdaa760e01b8152336004820152602490fdfea2646970667358221220557ce25a0cc07c5d2ba7fc85d65fdfa2719b33e62c8c7da3c5367883714599d464736f6c63430008170033","linkReferences":{}},"methodIdentifiers":{"addReport(uint256,string,string,address)":"4dc47bd6","owner()":"8da5cb5b","renounceOwnership()":"715018a6","transferOwnership(address)":"f2fde38b"},"id":0}